S00E0000752D626F6F742E73726563C0
S3158080000018F09FE518F09FE518F09FE518F09FE5BA
S3158080001018F09FE518F09FE518F09FE518F09FE5AA
S31580800020E802808060008080C0008080200180809F
S3158080003080018080E001808040028080A002808074
S31580800040DEC0AD0B00F020E300F020E300F020E37B
S3158080005000F020E300F020E300F020E300F020E3CE
S3158080006028D01FE500E08DE500E04FE104E08DE5D6
S3158080007013D0A0E30DF069E10FE0A0E10EF0B0E1CE
S3158080008048D04DE2FF1F8DE850201FE50C0092E896
S3158080009048008DE234508DE20E10A0E10F0085E895
S315808000A00D00A0E1580600FA00F020E300F020E37E
S315808000B000F020E300F020E300F020E300F020E36E
S315808000C088D01FE500E08DE500E04FE104E08DE516
S315808000D013D0A0E30DF069E10FE0A0E10EF0B0E16E
S315808000E048D04DE2FF1F8DE8B0201FE50C0092E8D6
S315808000F048008DE234508DE20E10A0E10F0085E835
S315808001000D00A0E14A0600FA00F020E300F020E32B
S3158080011000F020E300F020E300F020E300F020E30D
S31580800120E8D01FE500E08DE500E04FE104E08DE555
S3158080013013D0A0E30DF069E10FE0A0E10EF0B0E10D
S3158080014048D04DE2FF1F8DE810211FE50C0092E814
S3158080015048008DE234508DE20E10A0E10F0085E8D4
S315808001600D00A0E13C0600FA00F020E300F020E3D9
S3158080017000F020E300F020E300F020E300F020E3AD
S3158080018048D11FE500E08DE500E04FE104E08DE594
S3158080019013D0A0E30DF069E10FE0A0E10EF0B0E1AD
S315808001A048D04DE2FF1F8DE870211FE50C0092E854
S315808001B048008DE234508DE20E10A0E10F0085E874
S315808001C00D00A0E12E0600FA00F020E300F020E387
S315808001D000F020E300F020E300F020E300F020E34D
S315808001E0A8D11FE500E08DE500E04FE104E08DE5D4
S315808001F013D0A0E30DF069E10FE0A0E10EF0B0E14D
S3158080020048D04DE2FF1F8DE8D0211FE50C0092E893
S3158080021048008DE234508DE20E10A0E10F0085E813
S315808002200D00A0E1200600FA00F020E300F020E334
S3158080023000F020E300F020E300F020E300F020E3EC
S3158080024008D21FE500E08DE500E04FE104E08DE512
S3158080025013D0A0E30DF069E10FE0A0E10EF0B0E1EC
S3158080026048D04DE2FF1F8DE830221FE50C0092E8D2
S3158080027048008DE234508DE20E10A0E10F0085E8B3
S315808002800D00A0E11C0600FA00F020E300F020E3D8
S3158080029000F020E300F020E300F020E300F020E38C
S315808002A068D21FE500E08DE500E04FE104E08DE552
S315808002B013D0A0E30DF069E10FE0A0E10EF0B0E18C
S315808002C048D04DE2FF1F8DE890221FE50C0092E812
S315808002D048008DE234508DE20E10A0E10F0085E853
S315808002E00D00A0E1FA0500FA0F0000EA00000FE198
S315808002F01F1000E21A0031E31F00C0131300801321
S31580800300C00080E300F029E1100F11EE020AC0E3FD
S31580800310100F01EE1D0000EB900300EB150F07EE2A
S315808003209A0F07EE950F07EE1EFF2FE1EEFFFFEA8D
S315808003300000A0E3170F08EE150F07EED50F07EE26
S315808003409A0F07EE950F07EE100F11EE020AC0E3A3
S315808003500700C0E3020080E3020B80E3010A80E3AA
S31580800360100F01EE0E50A0E1101F10EE213AA0E191
S315808003700F3003E20F4001E20322A0E1022084E1F4
S315808003800C009FE50700C0E300D0A0E105F0A0E166
S30D808003901B0600EAF059CF41FB
S3158080039870470148704700BF030000800048704757
S315808003A8030000800048704703000080004870473B
S315808003B8030000800048704703000080004870472B
S315808003C8030000800048704703000080214A2DE999
S315808003D8F34D1368002B39D0002939D0D1F800C065
S315808003E8BCF1000F07D110F0010F1B4818BF002001
S315808003F802B0BDE8F08DE2464FF0000B50680026CB
S31580800408926801900092019AB24201D11348EFE72F
S31580800418D3E90245AB4508BFA24513D3D3E906E2A3
S315808004284FEA0E301203071942EA1E5242EB05083C
S31580800438C34508BFBA4505D21B6900201C1B644486
S315808004480C60D5E7009A01361344DCE70448CFE789
S315808004580148CDE7700E8080020000800E00008003
S315808004680300008010B50446002021462061E2689A
S3158080047800F098FA206110BD01380A44914200D173
S31580800488704711F8013B00F8013FF7E70448054BB0
S3158080049803651030044B8361044BC361FFF7E2BF69
S315808004A8700E8080990380809B038080A5038080DE
S315808004B82DE9FF4D344D06460C46344B9D4206D376
S315808004C8334B1E6004B0BDE8F04D00F005BDD9F809
S315808004D83810D5F800A001F1FF410AEB01025CB122
S315808004E82C4B9A4202D334339A4220D92A4B9A4249
S315808004F81DD0043B9A421AD02B79172B11D1244BC5
S3158080050818685AF80130301A034494B94AF8013089
S3158080051802F1430121F03F0122F03F0000F0F8FC10
S3158080052805E01E491A461E4800234CF0BDFF083553
S31580800538C3E79B464FF0000CCDE902BCD4E904BCE6
S31580800548E0464FF0000C5F46C44508BFBB4215D3D2
S31580800558D4E906E04FEA003C4CEA1E5C4FEA0E3E40
S315808005681EEB070000904CEB08004FF0000C0190C2
S31580800578DDE90078E04508BF9F42C7D20749094828
S315808005884CF092FFD3E700BF28E58680F8E5868021
S3158080059878B38680980E80800C0E80802C428580E9
S315808005A8B8098080DA09808037B500251446019598
S315808005B8069D009500F0D2F81CB1236803F07F036E
S315808005C8236003B030BD00F089B80000F0B50446DA
S315808005D800F10F0500F11F0601200139B54200D0D0
S315808005E878B904F12005294635F8026B18B1108848
S315808005F8871B784278417EB111880029F3D00232F0
S31580800608F1E711F8010F15F8017FA7EB000CDCF1F3
S31580800618000040EB0C00E1E72BB122680A440932DE
S3158080062822F007021A6008B1014B1C60F0BD00BF3A
S31580800638D80E808010B5044C0020211DFFF7C6FE99
S315808006480023236010BD00BFD80E80802DE9F74532
S31580800658214C154680460F460A8863681E691E4463
S3158080066862B925B90024204603B0BDE8F0851833E1
S31580800678B3422B60F6D300242C60F4E7206868B1F7
S315808006880A462B464146FFF7A1FF38B125B12B682C
S31580800698B34224BF00232B602468E4E76468183457
S315808006A8A64215D94FF0000A3A4601AB4146204604
S315808006B8FFF78CFF019BB34228BFCDF804A020B1F9
S315808006C8002DD0D0019B2B60CDE7019C002CEBD1EF
S315808006D8002DD0D1C6E700BFD80E8080F7B50D46ED
S315808006E81646074610B91A4803B0F0BD0029FAD0D5
S315808006F8002AF8D0046828466408214600F002F962
S31580800708A042F0D0294601AA3046FFF79FFF10B94C
S315808007182B88002BE7D10199A9B120310B4633F874
S31580800728024B002CFBD138685A1A3A6082420CD820
S315808007382846FFF7A1FE0199102230461144FFF71B
S315808007489BFE2046D0E70348CEE70348CCE700BF28
S31580800758020000800E0000800500008084460846DE
S315808007686146F8B5069D1746079E1C4609B9144802
S31580800778F8BD0028FBD0002BF9D00022FFF766FF52
S31580800788C8B10FB143683B601EB1D0E90223C6E980
S3158080079800232368026822609A420ED8002DE6D00C
S315808007A800F1200131F8024B002CFBD12846FFF757
S315808007B863FE2046DCE70348DAE70348D8E700BFCC
S315808007C8020000800E00008005000080F8B518B30E
S315808007D8124C21686668814228BF0021336928BF08
S315808007E8216000F12001F21831F8025B002DFBD1DF
S315808007F8076803440737394421F007015B1A521A80
S315808008083361FFF739FE6468284604F11801226946
S31580800818183A00F0C7F86061F8BD00BFD80E8080AE
S315808008282DE9FF4DDFF8ACA08B464FF0FF311D4692
S315808008380392DAF804600190D6F8108000F062F8A6
S31580800848DAF8041006EB080707F120030293441CA4
S31580800858620003EB44040D9B0092591A2944214473
S31580800868B1F5804F32D8039A7A60EA18DDE91001AB
S3158080087846F808201022C7E90201B8185946FFF7BA
S31580800888FBFD029B009A18460199FFF7F5FD2A46DB
S315808008980C992046FFF7F0FD0D9A0E996019FFF79F
S315808008A8EBFD56F80820DAF80450002007322244F7
S315808008B822F00702521B05F118012A61183A00F0C6
S315808008C871F86861002004B0BDE8F08D0048FAE7C9
S315808008D809000080D80E8080034B00215B681869E8
S315808008E8C0F57F5020307047D80E8080004870478A
S315808008F8030000800048704703000080FFF72EBF02
S31580800908FFF7ECBE03460020884202D033F81020D9
S3158080091802B970470130F7E7F0B58C070DD062B120
S315808009281F4C11F8013B4340013ADBB254F823301F
S3158080093883EA102001D08B07F3D1194C02F0030388
S315808009480E4622F003025718B74211D1043A114451
S315808009586BB1134C0333CA1C194412F8013F4340C8
S315808009688A42DBB254F8233083EA1020F5D1F0BD71
S3158080097856F8045B6840C5B254F8255085EA102538
S31580800988E8B254F8200080EA1525E8B254F82000A9
S3158080099880EA1520C5B254F8255085EA1020D3E719
S315808009A8080A808008B5C043FFF7B6FFC04308BDF4
S315808009B825733A20556E6B6E6F776E2072656C6F75
S315808009C8636174696F6E207479706520256C6C7824
S315808009D80A0025733A2052656C6F636174696F6EFD
S315808009E8206174202570206973206F7574206F66E6
S315808009F82072616E67652028256C78290A00000038
S31580800A0800000000963007772C610EEEBA5109995E
S31580800A1819C46D078FF46A7035A563E9A395649EBA
S31580800A283288DB0EA4B8DC791EE9D5E088D9D297DE
S31580800A382B4CB609BD7CB17E072DB8E7911DBF903A
S31580800A486410B71DF220B06A4871B9F3DE41BE845E
S31580800A587DD4DA1AEBE4DD6D51B5D4F4C785D383BA
S31580800A6856986C13C0A86B647AF962FDECC9658A5E
S31580800A784F5C0114D96C0663633D0FFAF50D088DBA
S31580800A88C8206E3B5E10694CE44160D5727167A25E
S31580800A98D1E4033C47D4044BFD850DD26BB50AA5BA
S31580800AA8FAA8B5356C98B242D6C9BBDB40F9BCACDE
S31580800AB8E36CD832755CDF45CF0DD6DC593DD1AB3A
S31580800AC8AC30D9263A00DE518051D7C81661D0BF5E
S31580800AD8B5F4B42123C4B3569995BACF0FA5BDB8BA
S31580800AE89EB802280888055FB2D90CC624E90BB15E
S31580800AF8877C6F2F114C6858AB1D61C13D2D66B6BA
S31580800B089041DC760671DB01BC20D2982A10D5EF1D
S31580800B188985B1711FB5B606A5E4BF9F33D4B8E879
S31580800B28A2C9077834F9000F8EA8099618980EE11D
S31580800B38BB0D6A7F2D3D6D08976C6491015C63E679
S31580800B48F4516B6B62616C1CD83065854E0062F29D
S31580800B58ED95066C7BA5011BC1F4088257C40FF5F9
S31580800B68C6D9B06550E9B712EAB8BE8B7C88B9FC1D
S31580800B78DF1DDD62492DDA15F37CD38C654CD4FB79
S31580800B885861B24DCE51B53A7400BCA3E230BBD41D
S31580800B9841A5DF4AD795D83D6DC4D1A4FBF4D6D379
S31580800BA86AE96943FCD96E34468867ADD0B860DA1D
S31580800BB8732D0444E51D03335F4C0AAAC97C0DDD79
S31580800BC83C710550AA41022710100BBE86200CC99D
S31580800BD825B56857B3856F2009D466B99FE461CEF9
S31580800BE80EF9DE5E98C9D9292298D0B0B4A8D7C71D
S31580800BF8173DB359810DB42E3B5CBDB7AD6CBAC079
S31580800C082083B8EDB6B3BF9A0CE2B6039AD2B17494
S31580800C183947D5EAAF77D29D1526DB048316DC73F0
S31580800C28120B63E3843B64943E6A6D0DA85A6A7A94
S31580800C380BCF0EE49DFF099327AE000AB19E077DF0
S31580800C4844930FF0D2A3088768F2011EFEC2066914
S31580800C585D5762F7CB67658071366C19E7066B6E70
S31580800C68761BD4FEE02BD3895A7ADA10CC4ADD6794
S31580800C786FDFB9F9F9EFBE8E43BEB717D58EB060F0
S31580800C88E8A3D6D67E93D1A1C4C2D83852F2DF4F94
S31580800C98F167BBD16757BCA6DD06B53F4B36B248F0
S31580800CA8DA2B0DD84C1B0AAFF64A0336607A044194
S31580800CB8C3EF60DF55DF67A8EF8E6E3179BE6946F0
S31580800CC88CB361CB1A8366BCA0D26F2536E2685214
S31580800CD895770CCC03470BBBB91602222F26055570
S31580800CE8BE3BBAC5280BBDB2925AB42B046AB35C94
S31580800CF8A7FFD7C231CFD0B58B9ED92C1DAEDE5BF0
S31580800D08B0C2649B26F263EC9CA36A750A936D02D3
S31580800D18A906099C3F360EEB85670772135700052F
S31580800D28824ABF95147AB8E2AE2BB17B381BB60C53
S31580800D389B8ED2920DBED5E5B7EFDC7C21DFDB0BAF
S31580800D48D4D2D38642E2D4F1F8B3DD686E83DA1FD3
S31580800D58CD16BE815B26B9F6E177B06F7747B7182F
S31580800D68E65A0888706A0FFFCA3B06665C0B0111D3
S31580800D78FF9E658F69AE62F8D3FF6B6145CF6C162F
S31580800D8878E20AA0EED20DD75483044EC2B30339D3
S31580800D98612667A7F71660D04D476949DB776E3E2F
S31580800DA84A6AD1AEDC5AD6D9660BDF40F03BD83753
S31580800DB853AEBCA9C59EBBDE7FCFB247E9FFB530AF
S31580800DC81CF2BDBD8AC2BACA3093B353A6A3B424D3
S31580800DD80536D0BA9306D7CD2957DE54BF67D9232F
S31580800DE82E7A66B3B84A61C4021B685D942B6F2AD3
S31580800DF837BE0BB4A18E0CC31BDF055A8DEF022D2F
S31580800E08080E8080080E8080494249205359535461
S31580800E186400020048000000000000000000000016
S31580800E28580E808000042320000000000000000007
S31580800E3800000000000000000000000000000000A4
S31580800E48800E808000000000000000000000000006
S31580800E58440061007300200055002D0042006F0019
S31580800E686F00740000000000000000000000000091
S31580800E78000000000000000052554E5453455256DB
S31580800E88640002005000000000000000000000009E
S31580800E98C50F8480B10F8480AD038080AD03808048
S31580800EA811108480D50380801D1584809115848057
S31580800EB855158480AD038080690F8480B5038080D2
S31580800EC8BD038080B1158480D00E8080D00E8080CE
S30D80800ED800000000000000000C
S31580800EE0002307EE153F07EED53FBFF34F8FBFF345
S31580800EF06F8F70477047704708B500F09AE8BDE8F5
S31580800F000840FFF7F8BF704708B500F0E8E8BDE80D
S31580800F100840FFF7F8BF704738B504460D4600F0A5
S31580800F2005FE30EE103F012203F0070304339A401A
S31580800F30534223409D4207D8BFF34F8F2946204690
S31580800F40BDE83840FFF7E7BF07EE3E3F1344F1E741
S31580800F50704770B504460D4600F0E8FD30EE106FA0
S31580800F602946204600F0E2FD40B1012306F00706BF
S31580800F70043603FA06F623469D4207D8BFF34F8F81
S31580800F8029462046BDE87040FFF7E2BF07EE363F30
S31580800F903344F1E75FF07FF5300F30EEA03BA0E180
S31580800FA00E3013E21C00000A00A0A0E3AA208AE08B
S31580800FB03012A0E1071001E2020051E3130000BA6B
S31580800FC010AF40EE6FF07FF5101F30EE072001E204
S31580800FD0042082E2FF4300E3A14114E0145F6FE1C5
S31580800FE0FF7F07E3A17617E00790A0E11465A0E173
S31580800FF006B08AE11962A0E106B08BE15EBF07EE9A
S31580801000019059E2F8FFFFAA014054E2F5FFFFAA5A
S3158080101002A08AE20A0053E1E3FFFFCA00A0A0E3B0
S3158080102010AF40EE4EF07FF56FF07FF51EFF2FE11B
S31580801030F04E2DE9D6FFFFEBF04EBDE81EFF2FE187
S315808010405FF07FF5300F30EEA03BA0E10E3013E2EB
S315808010501C00000A00A0A0E3AA208AE03012A0E14A
S31580801060071001E2020051E3130000BA10AF40EE90
S315808010706FF07FF5101F30EE072001E2042082E2B8
S31580801080FF4300E3A14114E0145F6FE1FF7F07E334
S31580801090A17617E00790A0E11465A0E106B08AE109
S315808010A01962A0E106B08BE156BF07EE019059E246
S315808010B0F8FFFFAA014054E2F5FFFFAA02A08AE268
S315808010C00A0053E1E3FFFFCA00A0A0E310AF40EE21
S315808010D04EF07FF56FF07FF51EFF2FE1F04E2DE904
S315808010E0D6FFFFEBF04EBDE81EFF2FE1704710B5AF
S315808010F0044600F0C0FBE3070DD500F06DFDFFF7D9
S31580801100F9FEFFF701FF00F043FDFFF7E9FEFFF7E9
S31580801110EDFF002010BD00F03BFDFFF7E1FEFFF7FD
S31580801120EBFEFFF7DDFE00F02AFDF0E70320FFF7F8
S31580801130DEBF11EE100F00F00100704708B500F099
S3158080114032FD08B900F01BFDBDE8084000F030BDD7
S31580801150100F11EE0200C0E3100F01EE1EFF2FE18B
S3158080116078009FE50700C0E300D0A0E1D03D00FA7B
S3158080117000D0A0E10090A0E1D03D00FA0000A0E37D
S31580801180554400FA480099E50700C0E300D0A0E105
S31580801190509099E50CE08FE24C0099E500E08EE076
S315808011A0380099E5260000EA1B0000EB5AFCFFEB2D
S315808011B02C009FE52C309FE50010A0E3002053E0B3
S315808011C0A60000FAB74300FBB74300FA0900A0E106
S315808011D0381099E510E09FE51EFF2FE1A0EEFFFF16
S315808011E0F059CF41F8E586802499878019258180BA
S315808011F00DC0A0E1F05F80E80000A0E31EFF2FE134
S31580801200F05F90E80CD0A0E10100A0E1000050E3FF
S315808012100000001A0100A0E31EFF2FE1380099E547
S31580801220102F11EE022A12E20010A00390109F1553
S31580801230FC05B0E8FC05A1E8FC05B0E8FC05A1E862
S315808012401EFF2FE108304FE264109FE5031081E096
S31580801250014050E01500000A54109FE5031081E09C
S3158080126050209FE5032082E0000CB1E8000CA0E8C6
S31580801270020051E1FBFFFF3A3C109FE5032081E0AD
S3158080128038109FE5033081E00300B2E8FF1001E269
S31580801290170051E30300001A040080E0001090E5F7
S315808012A0041081E0001080E5030052E1F5FFFF3AEB
S315808012B01EFF2FE1BCEDFFFFB4D30600B4D306003A
S315808012C024BA07000000FFFFF0B5D9F8003091B04E
S315808012D06D4608AC294603F1200C22460026DF6B3A
S315808012E00833C5E9007608359F6B6345C4E9007687
S315808012F004F10804F3D1042311F088FC11B0F0BD09
S315808013007047000073B5D9F800300546D0F89460F0
S315808013100C461A485B6B019334F072F848B1102101
S3158080132001AA4CF04BF9002822DB019914484CF035
S31580801330BFF8FFF7E5FF134B134904F40074134895
S31580801340002C08BF19464CF0B3F84FF48C4018F047
S3158080135093FD4FF4C06018F08FFDFFF7E7FED5F858
S31580801360A4303BB1D5F8A02014B901992046B04766
S3158080137002B070BDD9F800309A6BF5E7A2518580AE
S31580801380A9518580FBF085808B518580CE51858063
S315808013907047000010B50446094834F031F8D4F817
S315808013A0A43033B1204602F079FF20B105484BF056
S315808013B0FFFA0548FBE72046BDE81040FFF7E8BF07
S315808013C0748A8580E7518580FC518580F8B504468E
S315808013D010F0C0051E4618D110F4807704D01846C8
S315808013E0FFF7D8FF2846F8BD10F4C06505D00146C2
S315808013F01846FFF787FF3D46F4E71846FFF7CAFF92
S3158080140021463046FFF77EFFECE74FF0FF35E9E770
S3158080141010B50446D0F8A00060B1084942F0CFF9F3
S31580801420002807DDD4F8A000FFF74EFF10B10448EE
S3158080143012F0E2FFBDE81040FFF778BE2352858028
S315808014402B528580D0F89430D0F8A00018470000C1
S315808014500000000000000000000000000000000086
S3158080146010F0030384463DD141EA012141EA0141DE
S315808014700B46102A1FDB2DE9004188468E46403A6E
S31580801480A1BFACE80A41ACE80A41ACE80A41ACE8C5
S315808014900A41F4DC08BFBDE8008112F0200F1CBF32
S315808014A0ACE80A41ACE80A4112F0100F18BFACE8EC
S315808014B00A41BDE8004112F0080F18BFACE80A0067
S315808014C012F0040F18BF4CF8041B12F0020F1CBFD9
S315808014D00CF8011B0CF8011B12F0010F18BF0CF8D9
S315808014E0011B7047043AF0DB022BB8BF0CF8011B56
S315808014F0D8BF0CF8011B0CF8011B1A44B4E700BF57
S31580801500884208BF70472DE91140043A4BDB10F0C2
S31580801510030C91F800F05AD111F0030C71D11C3A6A
S315808015202DE9E00114DB91F800F0603A91F81CF027
S3158080153005DB91F83CF091F85CF091F87CF0B1E8AD
S31580801540F851203AA0E8F851F7DA12F1600FF6DA0E
S3158080155012F01C0CCCF1200C18BFE74421E0AFF3CD
S31580801560008051F8043B51F8044B51F8045B51F8E4
S31580801570046B51F8047B51F8048B51F804EBE744F3
S3158080158000BFAFF3008040F8043B40F8044B40F83E
S31580801590045B40F8046B40F8047B40F8048B40F889
S315808015A004EBBDE8E001D20718BF11F8013B24BFE8
S315808015B011F8014B11F801CB18BF00F8013B24BF0D
S315808015C000F8014B00F801CBBDE811407047CCF1A3
S315808015D0040CBCF1020FC8BF11F8013BA8BF11F8FB
S315808015E0014B11F801EBC8BF00F8013BA8BF00F89A
S315808015F0014BB2EB0C0200F801EBD4DB11F0030C4B
S315808016008DD021F00301BCF1020F51F804EB4ED04E
S3158080161000F39A801C3A39DB2DE9E00391F800F0DB
S31580801620603A91F81CF005DB91F83CF091F85CF01B
S3158080163091F87CF0F0C94FEA1E23203AB1E8005336
S3158080164043EA04634FEA142444EA05644FEA152585
S3158080165045EA06654FEA162646EA07664FEA172761
S3158080166047EA08674FEA182848EA09684FEA19293D
S3158080167049EA0C694FEA1C2C4CEA0E6CA0E8F813F8
S31580801680D6DA12F1600FD5DABDE8E00312F01C0CD1
S315808016900AD04FEA1E2351F804EBBCF1040C43EACE
S315808016A00E6340F8043BF4DCA1F103017BE71C3A2E
S315808016B039DB2DE9E00391F800F0603A91F81CF06F
S315808016C005DB91F83CF091F85CF091F87CF0F0C9FC
S315808016D04FEA1E43203AB1E8005343EA04434FEA77
S315808016E0144444EA05444FEA154545EA06454FEADF
S315808016F0164646EA07464FEA174747EA08474FEABB
S31580801700184848EA09484FEA194949EA0C494FEA94
S315808017101C4C4CEA0E4CA0E8F813D6DA12F1600F16
S31580801720D5DABDE8E00312F01C0C0AD04FEA1E43DE
S3158080173051F804EBBCF1040C43EA0E4340F8043BB9
S31580801740F4DCA1F102012EE71C3A39DB2DE9E003B6
S3158080175091F800F0603A91F81CF005DB91F83CF046
S3158080176091F85CF091F87CF0F0C94FEA1E63203ADC
S31580801770B1E8005343EA04234FEA146444EA05241B
S315808017804FEA156545EA06254FEA166646EA072634
S315808017904FEA176747EA08274FEA186848EA092810
S315808017A04FEA196949EA0C294FEA1C6C4CEA0E2CDF
S315808017B0A0E8F813D6DA12F1600FD5DABDE8E00337
S315808017C012F01C0C0AD04FEA1E6351F804EBBCF170
S315808017D0040C43EA0E2340F8043BF4DCA1F10101BA
S315808017E0E1E600BF0020704708B5D9F800300E4882
S315808017F0596B05F0E9FF0D48D9F8D01005F0E4FF64
S315808018000B48D9F8441005F0DFFF0A48D9F848100C
S3158080181005F0DAFFBDE8084007484FF4E022D9F8A2
S31580801820B0104BF045BE00BF994A8580A54A858019
S31580801830AE4A8580B54A8580BF4A8580D9F848205A
S315808018400020C9F84420D9F84820103AC9F84820A1
S315808018507047D9F834204FF48043694649F0ACBF4D
S31580801860D9F844300020024A08331360704700BF9D
S31580801870400080807047002070470000014808B58E
S315808018804BF096F87C4B85802DE9F0450446A3B0D5
S315808018904D49802202A8FFF733FEA26BE16B4B484D
S315808018A0256C4BF005FE05F07046D9F80420D207EA
S315808018B00AD5D9F84C10A06BD9F84C20E36B821AE4
S315808018C04348591A4BF0F4FDE36A226B616B4148B9
S315808018D04BF0EEFD236A626AA16A3F484BF0E8FDD1
S315808018E0236900933D486369A269E1694BF0E0FD15
S315808018F0236800933A48E1686368A2684BF0D8FD14
S31580801900002EB4BF4E216E2115F0804F14BF5A220F
S315808019107A2215F0005F14BF4323632315F0805F1E
S3158080192014BF5620762022AD00902E484BF0C0FD05
S31580801930236C2D4A2D4813F0800F14BF0146114623
S3158080194013F0400F18BF024603F01F0013F0200FDC
S31580801950274B05EB8000274D08BF2B46009350F818
S31580801960803C25484BF0A4FD276CE56B17F020075B
S3158080197016D1082625F0030515E035F81420314662
S31580801980002C0CBF404650464BF092FD013413E04C
S31580801990022CF2D1194823B0BDE8F0454BF088BDC2
S315808019A0042625F0010516486FF003044BF080FD70
S315808019B0DFF85080DFF850A0002FE9D1002CE9DCD9
S315808019C055F82420DBE700BF180B8580A108868028
S315808019D09B088680C3088680E70886800B09868078
S315808019E03B0986806B0986805E0386802982858016
S315808019F088088680FBF085807B0986807FF6858057
S31580801A009A0986808D08868095088680044608B5E2
S31580801A1039F00AF906484BF04BFDE36B2046043BD0
S31580801A20E363FFF731FFE06B3EF006FBFFF726FFAF
S31580801A30EBA58580044608B539F0F6F806484BF064
S31580801A4037FDE36B2046043BE363FFF71DFFE06BC6
S31580801A503EF0F2FAFFF712FF8FA38580044608B521
S31580801A6039F0E2F806484BF023FDE36B2046083BCD
S31580801A70E363FFF709FFE06B3EF0DEFAFFF7FEFED9
S31580801A80BFA08580044608B539F0CEF806484BF06D
S31580801A900FFDE36B2046083BE363FFF7F5FEE06BC3
S31580801AA03EF0CAFAFFF7EAFE578B8580044608B572
S31580801AB039F0BAF806484BF0FBFCE36B2046083BCE
S31580801AC0E363FFF7E1FEE06B3EF0B6FAFFF7D6FE02
S31580801AD0B5A08580044608B539F0A6F806484BF04F
S31580801AE0E7FCE36B2046083BE363FFF7CDFEE06BC4
S31580801AF03EF0A2FAFFF7C2FE31938580044608B590
S31580801B0039F092F806484BF0D3FCE36B2046083BCD
S31580801B10E363FFF7B9FEE06B3EF08EFAFFF7AEFE29
S31580801B20369385800144FFF7F7B9000008B50A46E9
S31580801B3040EA01039B0605D0014603484BF0B8FC7A
S31580801B40002008BD0120FCE73F5E85804FF48042FF
S31580801B500020C9F8D420D9F8D410D9F83820521A60
S31580801B60C9F83820D9F83820120C1204C9F83820E0
S31580801B70D9F83820C9F8D0207047FFF7E7BF11EE33
S31580801B80103F43F4805301EE103FBFF36F8F704751
S31580801B9011EE103F11EE103F23F4805301EE103F7B
S31580801BA0BFF36F8F704711EE100FC0F30030704710
S31580801BB008B5FFF7BEFA20B9BDE8084005484BF066
S31580801BC077BC11EE103F43F0040301EE103FBFF364
S31580801BD06F8F08BD8660858010B511EE103F5B07DC
S31580801BE009D511EE104FFFF787F924F0040401EE32
S31580801BF0104FBFF36F8F10BD11EE100FC0F38000B2
S31580801C0070470000B00F10EEFF0000E2000050E346
S31580801C100000001A1EFF2FE103F020E3FDFFFFEA9C
S31580801C2007B5084901AA292018F07AFB014610B128
S31580801C3005484AF0BDFE01981FF09AFE03B05DF814
S31580801C4004FB00BFB8D6868010CB85802DE9F04D09
S31580801C50002392B0164600228B460446CDE90623A1
S31580801C60CDE90823FFF7DCFF08AA06A9C36F98474A
S31580801C705946DDE908572046DDE9068A41F09FFD11
S31580801C80002872DB32460146204610F04DFE061E45
S31580801C90C0F2B7805C484AF092FB5B4B5B4A314628
S31580801CA001300090204642F05BF900285DDB079A80
S31580801CB00135314647F10007B5EB08034FF0100533
S31580801CC012BA029367EB0A03009520460393069B1C
S31580801CD01BBACDE90A23029B4D4A93FA83F8039B6C
S31580801CE01BBACDE90C380AAB42F03AF900283CDBC6
S31580801CF004274FF0807A474A0EAB314620460097BC
S31580801D00CDF838A042F02CF9434A0EAB31462046B6
S31580801D1000970027CDF838A042F022F9079B0699D4
S31580801D2000951A0E180242EA036200F47F001B0AAD
S31580801D30024303F47F431343204609BA0F930EABC5
S31580801D40CDE910183146354A0E9742F009F90028B8
S31580801D500BDB3146204641F048FADFF8B480DFF865
S31580801D60C8A00546002D03DA002012B0BDE8F08DAC
S31580801D70424605AB2946204641F08EFC026813BA5E
S31580801D804268DDE9020112BA1A440023994208BFEB
S31580801D90904209D22946204642F06FF95FB3394690
S31580801DA0204641F035FA2AE0294605AA204641F0A8
S31580801DB034FB052251464AF0E5FA0028EAD02946C6
S31580801DC005AA204641F029FB154904224AF0DAFA11
S31580801DD00028DFD0294605AA204641F01EFB1149FE
S31580801DE007224AF0CFFA0028D4D02946204641F0EF
S31580801DF00FFA2F4603E03146204641F0F6F9054634
S31580801E00B0E73046B1E700BF94BA85809EBA8580B8
S31580801E10A9BA8580ADBA8580BCBA8580C8BA8580E6
S31580801E20D5BA8580DABA8580CFBA85800E4B1B6815
S31580801E30BFF35F8F03F00F02033A072A10D8DFE8DB
S31580801E4002F0110F040F0F0F06080220704703203F
S31580801E507047C3F303230A2B0CBF042005207047E9
S31580801E600020704701207047004123442DE9F045CA
S31580801E70174685B0224A1E46044603ABDFF898A0F3
S31580801E80884641F009FC4FF0FF334146002200939B
S31580801E901C4B0546204610F011FD002480465AF8DA
S31580801EA0041B28464AF063FA78B9174A182303FB3D
S31580801EB004233268043C022CC3F80880DA6008D98F
S31580801EC03146384600F02AF80EE00134072CE6D1F8
S31580801ED0F6E7FFF7ABFF052809D10C4928464AF07B
S31580801EE046FA08B10023336005B0BDE8F085042842
S31580801EF003D00128F8D10649F0E70649EEE700BF0E
S31580801F00FE1C8680C4948580F8E58680004F858017
S31580801F10144F85800A4F8580281685807FB50C462C
S31580801F200546FFF77DFE23680193064623B3FFF7B8
S31580801F307DFF012822D12B681A78302A1CD15A78C5
S31580801F40822A19D11A79302A16D15B79822B13D1BC
S31580801F5026484BF0ADFA2A68538821685BBA9BB2D3
S31580801F600433994203D222484BF0A2FA04E01A4401
S31580801F702A602268D31A236004B070BDFFF756FFAB
S31580801F802D6805280DD02B78302B08D16B78822B45
S31580801F9005D12B79302B02D16B79822B01D01548D4
S31580801FA0E2E7216828463F3121F03F012944FEF748
S31580801FB0B3FF002301AA039302A9D6F89430304652
S31580801FC00295984720B10C484BF072FA49F036FA60
S31580801FD0019931B102983F3121F03F010144FEF7EA
S31580801FE0B8FF019B05482360BEE700BF7D60868081
S31580801FF01561868037618680D0618680E86186803B
S3158080200010B504464AF0DBF9234619461A1B9042DE
S3158080201007DD0A78203A5E2A03F10103F5D9002389
S315808020200B7010BDF0B50F4685B014460146322040
S3158080203003AA0A9D1E4618F0BAF920BB024602AB57
S31580802040039839461FF0F0FEE8B9029801211FF007
S3158080205027FFC0B90146334602982A461FF0ACFD59
S31580802060012319460DF1070202982F681FF0A4FDFF
S315808020702A68E3B29A4208D1A74206D12868001B13
S3158080208018BF4FF0FF3005B0F0BD029802211FF0D7
S3158080209007FF0028F7D10146334602982A461FF06B
S315808020A08BFD0028EAD0EEE72DE9F04D0D46ADF5A3
S315808020B0067D01461646322003AA1F469DF838A221
S315808020C018F075F90446002846D1039802AB0122A0
S315808020D029461FF059FE044600283DD1DFF828B1F5
S315808020E00546464B4FF0070833608F9B18700298E1
S315808020F00323414604AA1FF05FFD044660BB9DF81A
S315808021001020FE2A28D0049B40F2022108F1030881
S31580802110C3F30F238B4269D802980DF1130241468F
S315808021201FF04AFD0546002866D19DF81030132B96
S3158080213040D009D853B1102B13D004990A2DC1F3FE
S315808021400F218844D3D107E0FF2BF6D12C496FF03D
S3158080215015042C484BF0ACF920460DF5067DBDE87C
S31580802160F08D049BC3F30F232E2BEFD1002EE4D06A
S31580802170331D11220DF11301019318464AF027F978
S31580802180019B1846FFF73CFF03220DF1230106F1E0
S3158080219015004AF01CF903220DF12F0106F1180073
S315808021A04AF015F905220DF13D0106F11B004AF032
S315808021B00EF9C2E7049BC3F30F23C22BC6D1002F2F
S315808021C0BBD0BAF1000FB8D09DF813208F9BD20870
S315808021D00132524528BF52460DF1150138461A7094
S315808021E002EB42025200FFF78BF9A6E70449584674
S315808021F04BF05EF90135A0E70446ADE7AA5533EE8C
S3158080220081468580185D8680335D8680F0B51446EC
S3158080221085B005460E465422002120461F46FFF78C
S315808022201FF9114B236002AB104A31460093284632
S315808022300723FFF7F7FE48B99DF80C30012B07D0AE
S315808022400B490C484BF034F96FF0150005B0F0BDA2
S315808022500B9B2246019331469DF828300093284671
S315808022603B46FFF721FFF1E72CD1EAADAA5533EE45
S31580802270814685804E5D8680084A094B13B51468F1
S315808022809C4209D0DFF820C00823CDE9003C054B6D
S31580802290FFF7BCFF02B010BD0020FBE7FCF9CF4101
S315808022A0AA5533EE1DFACF411CFACF4108B5084BAB
S315808022B001461A68074B9A4207D0074810224AF08F
S315808022C061F8B0FA80F0400908BD0020FCE700BFC5
S315808022D0FCF9CF412CD1EAAD00FACF41034B186887
S315808022E0034BC31A58425841704700BFFCF9CF410F
S315808022F0AA5533EE002070474FF000420020C9F87F
S315808023003C207047D9F8340070474FF00042002057
S31580802310D9F80010CA63D9F800100A64C9F83C203D
S315808023207047000070B5354A86B035490646FFF756
S315808023308DFC041E05DA314A30463249FFF786FC29
S31580802340044624B13049224630484BF0B1F83048B3
S315808023500023039304930593FFF7A8FF20B92D48A4
S31580802360FFF7A4FF002834D02B4D2948FFF79EFF26
S31580802370002830D0284603A91DF0C0F8002839D11E
S31580802380294603A81DF037F9002833D1042103A8F4
S315808023901DF0D2F9054600282CD103A81DF074F9CA
S315808023A040B3052330461D4A00931D491D4B019538
S315808023B010F004FC1C4A4FF0FF31304641F064FB3C
S315808023C0164A09230093194B0146304641F0C8FDD1
S315808023D010E0174DC9E70F48FFF768FF0028C9D17D
S315808023E01448FFF763FF0028C4D11348FFF75EFFC8
S315808023F00028BFD1204606B070BD00BF0AC985803F
S3158080240018C9858024C98580FD41858039C98580A4
S31580802410514E8580604E858042AF85807EC985801D
S3158080242085C9858079C9858093C98580A1C985803C
S31580802430734A86805BC985806AC9858010B5FFF7B7
S315808024404DFF044610B10024204610BD5021FFF771
S3158080245013FF0028F7D05122502108484BF028F8E6
S3158080246020465121FFF708FF04460028ECD002461B
S31580802470512103484BF01CF8E6E700BFA582858092
S31580802480DF82858008B5FFF7D9FF30B1044A0549D8
S3158080249005484BF00DF8002008BD044A0449F7E74B
S315808024A09B5E8580514E85809E5E858011FACF4168
S315808024B000FACF412DE9F045354D85B01C460F4653
S315808024C0904605F19C0382462A46019305F198033E
S315808024D041463846009302230C9E01F07DFD30B143
S315808024E02C4811F089FF012005B0BDE8F085D5F82C
S315808024F09830B3B1A34202D3A219934206D3D5F8BA
S315808025009C20A24208D9A1198A423DD82248A21984
S3158080251021464AF0CDFFE6E7A34202D2A3199A422A
S31580802520F4D21E4B4246029339465046043B009570
S315808025300193022303F0FEF908B11948D1E7D5F853
S31580802540A00080B1844202D8A319834207D8D5F8E7
S31580802550A4300344A34206D3A219934203D21148DE
S31580802560A2192146D5E707F05FFF0023084A414636
S31580802570019338460093022301F01EFE0028B3D0D3
S3158080258009484AF095FFAEE7A342CAD2BEE700BFAC
S31580802590A0E6868084548580A954858044E7868099
S315808025A0DE5485800255858038558580FFF763B9EE
S315808025B02DE9F04D1F468EB016460891179C169DC4
S315808025C00790D4F8C030E90743EA0503C4F8C030E1
S315808025D01BD5DFF84C834FF4157200214046FEF7F9
S315808025E03FFFBF4832F092FFC8F8BC0001F070FC14
S315808025F0824601F07DFC00235146024608F1C400E4
S3158080260049F013FA0123C8F8C0302A0506D5002E72
S3158080261004DD3868102200214AF0B2FFAB0740F112
S31580802620BA8000200DAA8642CDE90C000CA9DFF87D
S31580802630F0824FF0000BC8BF386801F097FCC8F86D
S3158080264088B0C8F884B0824601F0B9FC02282CD1C3
S31580802650019008F1880300900DAA059308F1840300
S315808026605146404604936423CDF80CB002930CAB5C
S3158080267004F08EF900281DDB0D9BC8F850300C9B2A
S31580802680C8F84CA0C8F84830C8F85400DFF890B233
S31580802690D846DBF888307BB9924811F0ADFE4FF092
S315808026A0010B58460EB0BDE8F08D079B8E481968A1
S315808026B04AF0FEFEDA46E9E7504601F080FC0228C1
S315808026C03CD1DBF854100BF19102DBF84C0003F01F
S315808026D04BFB08B18548E0E7DBF854100BF190029C
S315808026E0DBF84C0003F054FB08B18148D5E7DBF872
S315808026F054100BF19202DBF84C0003F00DFB08B10D
S315808027007C48CAE7DBF854100BF19302DBF84C0067
S3158080271003F016FB08B17848BFE7DBF84C0003F07E
S315808027200BFFDBF854100BF18C02CBF88000DBF8C2
S315808027304C0003F055FB18B17048AEE77048ACE7A3
S315808027409BF89330032B01D0182B0CD16D4A0DAB9F
S315808027500321A2F1940001F02DFD00280CDA0230CD
S315808027600AD0694899E7DBF84430002B55D0DBF8EE
S3158080277018301BBACBF8943098F891300E2B08D14C
S31580802780D8F88420D8F89430C8F88C201344C8F8B8
S315808027909430C8F87CA068074FD415F0080868D1B3
S315808027A0EB061BD5D4F8981004F1AC03D4F89C20A2
S315808027B004F1C400009304F1A803521A01F0A0FC2E
S315808027C0834600287FF46DAFD4F8A8104F4832F046
S315808027D0F5FDD4F8AC104E4832F0F0FDA80600F135
S315808027E0E68094F8920000F051FB8246002840F003
S315808027F0F18015F4F86F00F0ED80B8F1000F01D00C
S31580802800FFF738F894F8920001F094FA94F89220C1
S31580802810014640484AF04CFE41E7DBF8503053B1E0
S31580802820384ADBF85410DBF84C0003F0DFFA0028D6
S31580802830A2D0394831E739482FE7394A92F8911042
S315808028400E29AAD844F21403CB40D907A5D592F88D
S315808028509230052B01D00E2B9FD100233A460898C3
S3158080286031460093FFF726FE834600287FF419AF12
S3158080287093E7FFF700F8E36F099394F890B0D4F864
S3158080288080300A930DABD4F88420D4F88CA004933E
S315808028904FF080630B9251460393D4F8883002932D
S315808028A00192CDF800A094F891308046584601F088
S315808028B05FFA0D990B9A002848D009905846A1EB6B
S315808028C00A0A01F0A7FA099B13F1260F014629D13E
S315808028D0B8F1000F01D0FEF7CDFF6FF0020BE0E676
S315808028E0158685803F8685801C8685805F868580E7
S315808028F07686858094868580A9868580C086858033
S31580802900DF86858034E786800287858058888580C3
S3158080291065888580708885802C8785804D87858031
S31580802920A0E68680BAF1806F0BD352484AF0C0FD0C
S3158080293051484AF0BDFDB8F1000F6BD0FEF79AFF83
S3158080294068E04E481A464AF0B3FDF1E7A1EB0A03E8
S315808029503F312AF03F00C4F8883021F03F010B9246
S31580802960091AFFF7DFF80D9BBBF1000F02D10B9A96
S31580802970524514D00A9A524511D9099A9A420ED252
S31580802980636C43B194F82230042B7FF409AF3C48C2
S3158080299011F032FD04E73B4811F02EFDCBE7D4F8E9
S315808029A08C1004F1C4005A1A48F001FFF8E6D4F876
S315808029B0A01004F1C40A504602F056FE04F1A40227
S315808029C0504604F1A00102F0E1FE834600283FF4E0
S315808029D008AF66E6690626D42A0631D4EB0538D454
S315808029E015F4806B3FD023464FF48062394630465B
S315808029F0CDF800A000F02EFA8346B8F1000F01D002
S31580802A00FEF738FF1BF1030F3FF467AFBBF1FF3F43
S31580802A107FF447AE08993B46079832461DF022FAE6
S31580802A204FF0FF3B3DE623463A4631464020D0472D
S31580802A3083460028D0D0144859464AF039FD30E67E
S31580802A4023463A4631468020D04783460028C5D0E3
S31580802A50F1E723463A4631464FF48070D047834625
S31580802A600028BDD0E7E7B8F1000F3FF41AAEFEF735
S31580802A7001FF16E671878580BA878580A1878580E4
S31580802A80D7878580118885809E88858070472DE947
S31580802A90F0410446884617461E460025454501DB9B
S31580802AA0BDE8F0810DB104F8016B57F825102046FA
S31580802AB049F026FC57F8250049F081FC013504440D
S31580802AC0ECE70000B0F5806F10B50CD15A6C42B13E
S31580802AD0D3F89440054821464AF0EAFCD9F80000AC
S31580802AE0A047012000E0002010BD00BFD3858580EF
S31580802AF02DE9F04D054686B04B48934603911C469A
S31580802B0032F07EFC064670B307464FF0000A3046A8
S31580802B1049F055FCBA1B904210D8BAF1000F22D0EA
S31580802B20EA0502D541484AF0C3FC039923465A46B2
S31580802B302846FEF74BFC06B0BDE8F08DB84618F8FF
S31580802B40011B3D290DD162B117F8012C662A08D167
S31580802B50002140464AF02CFD10F0010F18BF4FF03F
S31580802B60010A4746D3E7EB0502D531484AF0A0FCF7
S31580802B70B5F5806F55D1636C002B3DD0D4F8A0100D
S31580802B80D4F8A4300593002938D004F1C4052846AA
S31580802B9002F06AFD284605AA04F1A00102F0F6FD3E
S31580802BA0054648BBD4F8A00010F0B0F8214AD4F886
S31580802BB0A000294641F052FA031E01DA023314D16D
S31580802BC0194832F01DFC0546C0B1D4F8A06049F0A2
S31580802BD0F6FB154A01231849019318442B46009029
S31580802BE030460FF07DFE002808DA40F0F7FF134963
S31580802BF0024613484AF05CFC01209CE72046FEF79B
S31580802C0007FCD4F8A020D4F894100E484AF050FCE3
S31580802C1011F00EFC2046FEF715FC0B4811F0ECFBFC
S31580802C20EAE7002087E700BF748A8580BA88858036
S31580802C30D1888580F7888580F6888580C041858023
S31580802C40FE888580118985804D898580B0F5806FE5
S31580802C5013B51C464FF000032CD10093FFF72AFC56
S31580802C6040B93EF0A9FA38B120F0004112484AF0C6
S31580802C701FFC012002B010BDD4F8A40008B1D4F89E
S31580802C80A00004F075FF18B120F000410B48EEE7F4
S31580802C90D4F894100A484AF00BFCD4F88810D4F8FB
S31580802CA09400012384F8913005F03EF8003818BFEF
S31580802CB00120DFE71846DDE7B3848580E58485805B
S31580802CC010858580B0F5806FF8B50D4617461C4611
S31580802CD023D15B6CABB1124832F092FB50B10021AC
S31580802CE04AF066FC002D06460DDD0A233A462946C3
S31580802CF0FFF7CDFED4F894400A4821464AF0D8FBA7
S31580802D00A04701200AE0084832F07AFB0146002875
S31580802D10F0D0304649F0F4FAECE70020F8BD00BFE9
S31580802D209085858099858580748A858070B50D46E5
S31580802D3016461C4632F000FC30B9D4F88810054817
S31580802D4032F03CFB002070BDD4F894303146284662
S31580802D509847F7E70C868580B0F5806F30B5144646
S31580802D6087B01CD15A6CC2B1D3F8942002AD0D497C
S31580802D7028464AF07DFB2368CDE90035FEF73CFF87
S31580802D80044608B1FEF728FF00216B4602220846DA
S31580802D9007F0C6F80CB1FEF70BFF012000E000209B
S31580802DA007B030BDEB7F8580B0F5806F2DE9F34D20
S31580802DB00E4617461D4641D15B6C4BB395F8223043
S31580802DC0042B27D04FF00008002E2FDDBA4607EB64
S31580802DD0860B00245AF8040B49F0F1FAD34500F1AA
S31580802DE001000444F6D1204611F0CCFD20233A46DA
S31580802DF031460446FFF74BFED5F894501148294654
S31580802E004AF056FB104A23464146D9F80000A84727
S31580802E10012014E0D5F8008001AB6A460121404646
S31580802E2000F051FF019B002BCCD0CDE7074832F0D4
S31580802E30E7FA054C002818BF0446DDE7002002B07B
S31580802E40BDE8F08D47858580FBF08580748A858096
S31580802E5070477047F8B506460F4614461D46FFF7FD
S31580802E60F7FFFFF7F6FF2B4631463A46069E204609
S31580802E70B04795F89130012B05D0B4F5007018BF16
S31580802E804FF0FF30F8BD0020FCE70000014B53F87F
S31580802E9020007047B40D858003681A780AB10A2AA3
S31580802EA000D1704701330360F6E7000082680146EF
S31580802EB002B9426801484AF0FBBA00BF9EE085802D
S31580802EC02DE9F0411F460B782F2B0446ADF5087D02
S31580802ED00D4690461AD1037BC3B100238DF81C30F2
S31580802EE0284649F06CFA064607A849F068FA0644EF
S31580802EF0B6F5007F11D916482A4607A94AF0D8FA2E
S31580802F006FF023000DF5087DBDE8F08121694FF4CF
S31580802F10007207A849F0FCF9E2E7294607A849F03C
S31580802F2003FA0C4807A94AF0C3FA0B49424602A81D
S31580802F304AF09EFA656801AB02AA204607A9A8478F
S31580802F400028DFDB0FB1019B3B600120DAE700BF01
S31580802F50E0CA8580FBCA8580EB7F858073B5044611
S31580802F6010460D461E4632F0B5FA68B1102101AA88
S31580802F704AF024FB00280ADB019A334629462046FC
S31580802F80FFF79EFF02B070BD6FF00100FAE76FF029
S31580802F901500F7E710B50446406811F03FFCE068FD
S31580802FA011F03CFC206911F039FC606911F036FC27
S31580802FB0A06911F033FCE06911F030FC206A11F0D1
S31580802FC02DFC606A11F02AFCA06A11F027FC20464D
S31580802FD0BDE8104011F022BC2DE9F04D06460D4625
S31580802FE007689846184839468A4611F8013B33B1B6
S31580802FF0202A02D1C45CA40601D49342F4D1AAEBE0
S31580803000070B0BF1010011F0BDFC286058B10E4909
S3158080301000222B685A4508D1002199540123C6F88D
S3158080302000A028686B60BDE8F08D9818BC5CB8F10C
S31580803030000F07D00B5DDB0744BF2034E4B20470F9
S315808030400132E6E79C54FBE747478580F7B50368FE
S31580803050054601930C4616234B60019B19782029DF
S315808030600FD009290DD0232910D0019B19780A29E0
S3158080307013D10022626001330193019B2B6003B0E0
S31580803080F0BD01330193E8E701330193019B197801
S315808030900029EAD00A29F7D1E7E709B90222E9E7C8
S315808030A0022A06D100230A22214601A8FFF794FF2F
S315808030B0E3E701232022214601A8FFF78DFF084EF2
S315808030C0002756F837100029D7D0206849F04FF965
S315808030D020B906EBC70673686360CEE70137F0E7F1
S315808030E09C18858073B502220D466946044606681B
S315808030F0FFF7ACFF0198012809D021683246054840
S31580803100891B4AF0D5F96FF0150002B070BD009B1F
S315808031102B60FAE75AF68580F7B50E460222694615
S3158080312005460768FFF792FF019C012C09D0296824
S315808031303A460948C91B4AF0BBF96FF0150003B0BF
S31580803140F0BD0A22002100984AF059FA3060009832
S3158080315011F064FB2046F2E7BAF58580142910B514
S31580803160044686B006D814484AF0A2F96FF01B0050
S3158080317006B010BD4BF0A0FA04AA01460F484BF06A
S31580803180F3FBA8B19DF815300D49039320469DF831
S3158080319014309DF8102002939DF8133001939DF88A
S315808031A0123000939DF811304AF062F90120DFE7F2
S315808031B06FF00100DCE700BF79C78580285A86805A
S315808031C099C785802DE9F04D0025ADF50D6DA64B0F
S315808031D00C461922294608901CA80F9310951195A4
S315808031E0129513951B95FEF73BF929464022239528
S315808031F024A8FEF735F92046FFF758FE636B012534
S31580803200256323B3A36B002B05DA002528460DF5AD
S315808032100D6DBDE8F08D954832F05CF90546002845
S31580803220F3D0A06950B14FF480620DF59A6111F0A8
S315808032300BF88F480DF59A610DF072FA284649F0A1
S31580803240BEF800220146284612F04FFADDE7216952
S3158080325021B9616887484AF02BF9D7E7864A08986A
S31580803260FFF77CFE002802DA61688448F3E78248AB
S3158080327032F0C6F8636907930746C3B149F09FF871
S315808032800646606949F09BF806440136304611F05F
S3158080329079FB079018B97A484AF00AF9B6E76369E4
S315808032A0314600933B46774A4AF0CFF8079FE169DB
S315808032B0002968D1E669002E6CD1E36AD90717D5D3
S315808032C0714832F09DF80546704832F099F880460C
S315808032D06F4832F095F882466E4832F091F86E49A2
S315808032E043462A46CDF800A0019023A84AF0C0F82C
S315808032F0E36A9A070CD569491BA849F001F815211C
S315808033001DA8FFF72BFF0028BCBF00238DF86C30EB
S31580803310E36AA5699B0701D1002D7DD0DFF89C816A
S3158080332000214FF47F7235A83491FEF799F8002DED
S3158080333014BF2846404649F042F8054623A849F0FE
S315808033403EF805441BA849F03AF8A1690135054441
S31580803350B5F5806F41D9002914BF0846404649F0AB
S315808033602EF8044623A849F02AF805461BA849F07A
S3158080337026F84FF48062214600922A4603464848C2
S315808033804AF096F824E0E06848F0F1FF002891D171
S315808033903E4692E7434A0DF59A6308983146FFF791
S315808033A0DDFD002804DA61683F484AF081F80FE045
S315808033B03C4832F025F8DDF8D03400931C213B4A16
S315808033C00346064614A84AF040F81B287FF675AF58
S315808033D00798012511F022FA18E721B14FF480620F
S315808033E034A848F095FF23A934A848F09DFF1BA9EF
S315808033F034A848F099FF4FF480620DF59A6134A81D
S3158080340010F022FF1A480DF59A610DF089F9284847
S315808034100DF59A614AF04CF8264831F0F1FF216A21
S31580803420129000294CD0E06848F0A1FF002847D14F
S3158080343012971097002E00F0DF80032414AB11932F
S31580803440129B1BB91C4831F0DBFF1290384600F086
S31580803450ABFD129B0546002B00F0D080119B002B84
S3158080346000F0E6800424D5E0EFDE8580F5DE858079
S31580803470748A8580FEDE85801CDF85802ADF858054
S3158080348055DF858059E08580B1DF8580B8DF85808E
S31580803490C1DF8580CBDF8580D3DF8580E3DF858054
S315808034A0ECDF858070DF85807FDF8580AADF858001
S315808034B012E085801EE0858086E08580FBF08580B1
S315808034C0129B002BB5D0D4F820B0BBF1000F40F012
S315808034D0B280636A002B00F08D80584831F090FF6F
S315808034E0054600285DD1564831F08AFF0546554805
S315808034F031F086FF8246002D51D1534B1D46534A6B
S31580803500BAF1000F02D1DFF840A15346606A0A9271
S31580803510099348F054FF099B0A9A002845D0616A2E
S31580803520084410F801CC48494948BCF12F0F18BF90
S315808035300146606A0D920A93099148F040FF099985
S315808035400C918046084648F03AFF08EB00032846EF
S31580803550099348F034FF0A9B0B938346184648F0BC
S315808035602EFF099B8046581C83445046D84448F099
S3158080357026FF0D9A0A920990104648F020FF099BF3
S31580803580434498468044404611F0FCF90A9A0B9B46
S315808035900C99834658B92F4849F08AFF18E72E4BF5
S315808035A0ADE7294A92461346B0E72C49C1E7CDE973
S315808035B00015414604925D46CDF80CA00293284AB8
S315808035C0636A49F042FF274A002308985946FFF7E5
S315808035D0C5FC8046284611F021F9B8F1000FBFF668
S315808035E028AF00231293236A002B3FF422AF6168B1
S315808035F01D48DAE612931CE7022421E700F0DFFCFF
S31580803600022803D0194831F0FBFE1290129B002BC2
S315808036107FF424AF284600F0D2FC00283FF4D8AE51
S3158080362008980FAB22460021006803F019FFCFE689
S31580803630094B119316E70025C5E700BF29E08580F1
S3158080364031E08580874E8580FBF0858022808580ED
S31580803650A28E858035E08580CB4E8580ECDE858028
S3158080366051E085801EE085805EE085808FE0858064
S3158080367013B5144601ABFFF723FC0028A1BF0022B7
S315808036800120019B1A5502B010BD00002DE9F0453E
S315808036900D4685B0D1F800A00646284603A9174670
S315808036A09846FFF71FFD041E09DA296852460F489F
S315808036B0891A49F0FDFE204605B0BDE8F08503995C
S315808036C03A463046FFF7D4FF041E04DA0399084849
S315808036D049F0EEFEEFE70C9B3A4600933946434627
S315808036E0304600F007F80446E5E700BF90CC858039
S315808036F0ADCC85802DE9F04D1E468EB080460F4636
S315808037000591169B0392102B40F34381BA48102172
S3158080371049F0CEFE6FF01E0420460EB0BDE8F08DD7
S315808037204FF0010A3846C6F810A048F048FE524647
S31580803730059D0CA9044605A8FFF788FC0D9B0E2BDA
S3158080374008D0142B1AD0042B1BD1314605A8FFF73D
S31580803750C9FC0CE0169B221D039922F00302404689
S3158080376001330A44009305A93346FFF78FFF044649
S315808037700028D1DB05A8FFF78FFB0AE106F1080157
S31580803780E4E705992A469D48491B49F091FEF1E771
S3158080379006F10C0105A8FFF7BFFC044643E1059CB2
S315808037A0482011F0EFF8054610B96FF00B04B3E7A7
S315808037B048220021FDF754FE291D05A8FFF792FCBB
S315808037C000280BDA059922468D48091B49F070FE40
S315808037D02846FFF7DFFB6FF015049DE705F1400370
S315808037E0B26906F11401B36129646A6413600122A7
S315808037F00AA9059C05A8FFF729FC0B9B152B00F2CF
S31580803800C78001A252F823F0EF378080913980807B
S3158080381091398080613880809139808091398080AB
S3158080382091398080A9388080A9388080E7388080E7
S3158080383035398080753980809139808091398080D2
S31580803840913980804B3980805939808067398080F2
S315808038509139808085398080913980808B3980804C
S3158080386001220CA9059C05A8FFF7F0FB0D9B062B72
S315808038700DD00C2B11D173682BB9686848F0EAFD9E
S315808038807060002891D005A8FFF706FBAFE705F1A9
S31580803890080105A8FFF726FCF5E7059922465748D3
S315808038A0091B49F005FEEEE705F1100105A8FFF733
S315808038B019FC041EFFF630AF286948F0CBFDE8601E
S315808038C000283FF472AF4F49286948F016FE0446B7
S315808038D000288CD048F0BEFD686100283FF465AF33
S315808038E00023237083E705F1180105A8FFF7FAFB0B
S315808038F0EB6904930446CBB94349A86948F0FDFD3A
S31580803900A0B1202100F1070B584648F04BFDA0EB73
S315808039100B0A0AF1010011F035F852465946E861E2
S3158080392048F0F6FCEB69049A03F80A20002CBFF66F
S315808039305EAFF1E6EB69002B7FF459AF05F11C0190
S3158080394005A8FFF7CFFB0446F0E72B6A002B7FF4B0
S315808039504EAF05F12001F3E76B6A002B7FF447AF0A
S3158080396005F12401ECE7AB6A002B7FF440AF05F1CB
S315808039702801E5E7012305F138016B6305A8FFF788
S31580803980CBFBE0E705F12C01F8E70123EB632EE71B
S315808039900594012208A9059C05A8FFF757FB099B7A
S315808039A0122B5FD801A252F823F000BF9339808012
S315808039B0653A80806F3A808021378080653A8080C2
S315808039C0913780809F378080653A8080653A808015
S315808039D0653A8080653A8080653A80800D3A8080BD
S315808039E04F3A80802D3A8080653A8080653A8080A3
S315808039F0653A80800D3A8080D1F58580F0F5858026
S31580803A0017F68580DB79858032F6858007A905A8BB
S31580803A10FFF768FB079B04462BB1706808B110F0EE
S31580803A20FDFE079B7360002CB3DA75E6384648F056
S31580803A30C6FC169B0399013300933346C21C4046CD
S31580803A4022F003020A4405A9FFF720FEA5E606F1C7
S31580803A50100105A8FFF760FB041E9ADA05A8FFF718
S31580803A601BFA59E6059922460248091B8DE60124F0
S31580803A7052E600BF3AF6858070B5044600682546D2
S31580803A8010F0CCFE606810F0C9FE55F8140F0668F9
S31580803A90A84204D12046BDE8704010F0BFBE4038B1
S31580803AA0FFF778FA30463668F2E773B505461C200C
S31580803AB00E4610F067FF0446A8B11C220021FDF750
S31580803AC0CFFC3246314604F1140328466361A361F4
S31580803AD0012300932346FFF70DFE002803DA204654
S31580803AE00024FFF7C9FF204602B070BD2DE9F04D56
S31580803AF00D468AB0C968002406900A203F4B09315A
S31580803B000093234691FBF0F12A69286802940194F8
S31580803B100FF044FF0646002851D03948A24631F03E
S31580803B206FFC2B46012253F8148F05930746059B1D
S31580803B30984532D12FB1002C5AD13248394649F036
S31580803B40B7FCBAF1000F0BD0514630460FF02DFEF0
S31580803B50012805D002302FD169682B4849F0A8FC0E
S31580803B60304609A90FF046FE044630460FF042FFE4
S31580803B70012C3FD109990698FFF724FBF8B16C692F
S31580803B80059BA3421BD054F8103C23B90698A4F118
S31580803B904001FFF717FB2468F2E7531C1B49A8F105
S31580803BA0400B0793584649F063FC5A46594630463F
S31580803BB00FF0B2FE012805D030460FF01BFF0AB009
S31580803BC0BDE8F08D696831B158F83C0C48F0CFFB80
S31580803BD0002808BFDA463FB158F83C0C394648F091
S31580803BE0C6FB002808BF5C46D8F80080079A9EE707
S31580803BF0A246A9E70234E2D1C1E700BFAD2E80801C
S31580803C00C3CC8580D6CC8580F6CC858096FD858014
S31580803C102DE9F041079D04461E46884617460021B9
S31580803C201822FDF71DFC9DF81830C4F80080676067
S31580803C30A66023738DB1284648F0C1FBB0F5007F1E
S31580803C4016D2284648F006FC2061A0B13DB90023F3
S31580803C5022690020D054BDE8F0810848F2E72F2100
S31580803C60284648F0CBFB0028F1D0431B0133EFE791
S31580803C706FF01B00EFE76FF00B00ECE7FBF08580C1
S31580803C8070B505461646FFF710FF044620B90848EA
S31580803C9049F00EFC012070BD0EB1012303612146DF
S31580803CA02846FFF723FF2046FFF7E6FE0020F2E74F
S31580803CB0B6FF858000F13C03002053F8042F02B9BB
S31580803CC070470130F9E7F8B5044615461E46FFF77A
S31580803CD0F1FF884219D904F140023C3452F82130F0
S31580803CE01BBA3360002637468F4205D1431C02EBD0
S31580803CF0830333442B60F8BD54F8043F01371BBAE5
S31580803D00033323F003031E44EEE700233360F1E799
S31580803D100368002B01DA002070478B42FCD00C3080
S31580803D20F6E710B50C461146FFF7F2FF00B18468BE
S31580803D30204610BD024902460248FFF7F2BF00BF07
S31580803D40F6C98580682D8580024902460248FFF73C
S31580803D50E8BF00BFCDC98580C42B858002490246D5
S31580803D600248FFF7DEBF00BF01CA8580402E85806E
S31580803D702DE9F04D0C9F05463960D8B216460C4623
S31580803D80FFF7ECFFDDF82080DDF824B0DDF82CA08D
S31580803D90024675B91A4B1B491B48A64218BF19465D
S31580803DA049F086FBA64212D10A99002021443960C7
S31580803DB00BE00146154849F07BFB012D11D0144854
S31580803DC0294649F075FB6FF02500BDE8F08D0A9A8B
S31580803DD0524512D84FF480335946404600F0C0F899
S31580803DE0E2E75A460AAB5146404646F025F910F13D
S31580803DF0260FE4D00028D7D0E7E76FF01B00E4E7F2
S31580803E0018CF858014CF858020CF85802ACF8580E6
S31580803E103FCF8580024902460248FFF782BF00BFB6
S31580803E20E2C98580082D858038B504461546236885
S31580803E30002B02DA4FF0FF3006E0606828B1294611
S31580803E4048F05AFA08B9206838BD0C34EFE700008C
S31580803E50024902460248FFF7E7BF00BF22188680E4
S31580803E60682D8580024902460248FFF7DDBF00BF84
S31580803E70D91A8680C42B8580024902460248FFF77C
S31580803E80D3BF00BF59178680402E8580024902465F
S31580803E900248FFF7C9BF00BFEAC98580082D8580A3
S31580803EA0024902460248FFF7BFBF00BF9E12868046
S31580803EB0102E8580084632F0020108B503D149F07C
S31580803EC077FB024B1860002008BD00BFCC708680CF
S31580803ED008B5064831F094FA20B1BDE80840002143
S31580803EE049F066BB4FF0004008BD00BF19B585809C
S31580803EF038B5114831F084FA20B11022002149F07A
S31580803F00B1FB38BDD9F83040D9F83C50D9F8342047
S31580803F100A486119914284BFD9F834502D1B31F0FB
S31580803F206FFA30B11022002149F09CFB2C44201A74
S31580803F30E7E72046FAE700BF31B5858019B58580E9
S31580803F4008B5064831F05CFA20B11022002149F08C
S31580803F5089FB08BDBDE80840FFF7CABF23B58580C9
S31580803F60814201D048F0A6BA7047000073B50D4EE5
S31580803F700B4615460446316880B101AA01F072FE6F
S31580803F8058B931682B46204601AA01F087FE014642
S31580803F9018B9204649F00CFB01900199084602B079
S31580803FA070BD00BFCC708680002307B5694601AAA4
S31580803FB0CDE90033FFF7DAFF03B05DF804FB08B57F
S31580803FC03EF0ECFF00280CBF0220002008BD806CEC
S31580803FD0003818BF012070472DE9F0458DB098468E
S31580803FE001284FF000031446149E159F33603B6072
S31580803FF011DD4D687DB13D49284648F0B8F9F8B95C
S31580804000002308930793079A002A45D0089B32603D
S3158080401013443B6040E0A36C8BB9636C002BEFD07C
S3158080402094F82230042BEBD12168314849F040FA4C
S31580804030206808AB012107AAFFF745FEE3E7002544
S31580804040A36C099300230A9345B3236DABB1D4F84F
S315808040504CA009AB51460BAA284601F003FE38BB1B
S3158080406051460AAB28460BAA01F018FE0146F8B9DC
S31580804070284649F09DFA0B901AE01E4BD3F800A093
S31580804080E7E71D4810F0B8F96FF015000DB0BDE870
S31580804090F08510F1410FF9D10020F7E7E26C2046D8
S315808040A016490B9202F05EFC831CF5D00028F0DB6B
S315808040B00B98FFF784FF0228E3D1039008AB0B9916
S315808040C00AAA059307ABCDF800802046049378230F
S315808040D002930323019309AB02F05AFC0028D8DBB4
S315808040E00B9BA3650A9BE36520668CE7CB4E858018
S315808040F043518580CC708680275185809D148680AB
S315808041002DE9F84580460E4626481746DDF820A0DC
S315808041101D4631F075F958B1002149F049FA0346B8
S31580804120421C0BD1EEB900202860CAF8000016E048
S31580804130FFF706FF0446FFF7CBFE2318002EF2D04A
S315808041404FF4805239464046B3B147F0BFFB286072
S315808041502A68A2B9144810F04FF94FF0FF30BDE8B5
S31580804160F8852E60F3193A463146CAF800304046C3
S3158080417047F01DFB0020F2E747F0B8FBE7E70B48E6
S315808041803A44CAF80020296849F092F928684FF4A1
S3158080419080333A463146FFF7E3FE054810F02CF926
S315808041A0E8E700BF4D52858059528580755285805B
S315808041B0A152858002F0E4BD2DE9F04D14468EB083
S315808041C00793936C1BB900200EB0BDE8F08DD56C3B
S315808041D02846FFF7F4FE022853D1A16C284602F0C8
S315808041E043FB2A4B2A4A00269B1ADB10069382467B
S315808041F000235146274A2846009333463FF000FCE9
S315808042000D900028DFD00CAB29460DAA05930BAB09
S315808042102046049302230393A023029316230193BB
S31580804220079B009304F1480302F0B2FB0028CBDBA6
S315808042300D99284601F05EFD0028C5DB01460DF10B
S315808042402B02284601F090FD0028BDDBDDF82CB0DE
S315808042504FF000080C999DF82B200D4F069B434507
S3158080426001D10136C4E73B68934206D17B685846C4
S31580804270099208919847099A089908F101080837A0
S31580804280ECE7054849F014F901209DE768D98680D6
S3158080429068D98680E9508580F350858073B50646D7
S315808042A000F1C405D0F8A43004460193284656F818
S315808042B0A01F01F0D9F93146284601AA01F066FA95
S315808042C038B9019A2AB1D4F8A0102B46204601F03D
S315808042D0FFFB02B070BD0000014610B5044605485C
S315808042E049F0E6F82046044A0021BDE8104046F0B1
S315808042F0EBBE00BF0FCA85807FF685802DE9F745A6
S315808043000446154641481F4631F000F980462046CE
S31580804310FFF755FE012868D002286DD14FF0FF3116
S31580804320204602F073FA18B1394810F065F80EE02D
S31580804330002D67D17FB13B786BB13946204602F03C
S3158080434093FA011E17DA3348394649F0B1F80120CD
S3158080435003B0BDE8F0850021204602F085FA011E73
S3158080436009DA002FEFD12C4920463FF028FA011E2A
S315808043700DDA2A48D9E72A4A0023204602F0C0FA75
S31580804380061E15DA002FEED026483946DDE7264A06
S31580804390002320463FF080F905460028E9D029464B
S315808043A0204601F0A7FC061E02DA20482946CCE783
S315808043B006223146204602F009FA08B91C48B4E73D
S315808043C0B8F1000F06D03146204602F075F908B95B
S315808043D01848AAE76A4601AB3146204601F00CFDB3
S315808043E008B11548A1E7DDE900A60A9B0020C3F83D
S315808043F000A00B9B1E60ABE710480FF0FDFF4FF0CF
S31580804400FF30A5E72B78002BADD0C8E71586858051
S31580804410DDCF8580F3CF85802AD0858032D0858018
S315808044207F2186800DD085808F1186804DD0858036
S315808044306BD085807ED085808DD08580B2D08580FA
S3158080444008B514F0A3FF00604060002008BD00001E
S31580804450F7B504460F464068164615F0F3FD01A869
S3158080446000F09AFE0546A8B9019BDB6AFB40DB0714
S3158080447010D436B1606815F0E5FD01460A4849F0EA
S3158080448017F8E3684BB9019A012303FA07F7D36AD1
S315808044903B43D362284603B0F0BD314620469847D9
S315808044A00028F0D00546F5E71A548580F8B507468A
S315808044B00E46006847F083FF0446304647F07FFF0C
S315808044C0844208DD3968251A3046294447F04FFFF3
S315808044D0002808BF2C462046F8BD73B5064601A83D
S315808044E000F05AFE0546D0B9582010F04BFA0446A3
S315808044F0C0B158223146FDF703F8019B04F10802CA
S31580804500143359685A60A360E1600A60306930B1BB
S3158080451014F03CFF43684460C4E900031C6028466D
S3158080452002B070BD6FF00B05F9E7000070B50446E8
S315808045308CB00E461D4600921E21436804A80D4A03
S3158080454048F083FF04A847F085FF024670B1204675
S3158080455003AB314615F062FB044620B9039815F00B
S3158080456048FA039B2B6020460CB070BD6FF00B041D
S31580804570F9E700BFAE5385802DE9F0418046B4B01F
S31580804580084615461C460F4614F000FFAB681D2B67
S31580804590064604DD6FF06B0034B0BDE8F08167615C
S315808045A002AFAB68002B32D02D4A1421384648F0B2
S315808045B04CFFD8F804303C212A4A07A8009748F057
S315808045C044FF07A847F046FF6062002842D0AB6868
S315808045D02946206AA36100F077FC0028DCD1A9688F
S315808045E016AA304612F064FAAB68ABB9831C13D135
S315808045F00123A3621E232B61AB68ABB9304612F0D0
S31580804600CDFC6861206A214600F065FCC4E71649C6
S31580804610384647F075FECCE710F15F0FBAD001239C
S31580804620A3620028E6D0B7E76A6962B1299BB3FAAC
S3158080463083F35B098BB9A169304631F02BFD30B1AC
S315808046400223A362A8E7013B18BF0123F2E7032375
S31580804650A362D7E76FF00B009EE76FF015009BE7AC
S31580804660FA538580AE5385800254858037B50D4652
S3158080467001AA1821044615F05DF940B110F1130F97
S3158080468005D1044A01AB29462046FFF74FFF03B088
S3158080469030BD00BF0954858070B5044690B00E4603
S315808046A004301749FFF702FF164A01923221626869
S315808046B00092154A034603A848F0C7FE204615F0A7
S315808046C087F902AA03A9054615F073F9044688B1CD
S315808046D010F1130F0ED103A847F0BCFE024660B1DD
S315808046E0314602AB284615F099FA044610B90298ED
S315808046F015F07FF9204610B070BD6FF00B04F9E796
S31580804700155485800954858044548580F0B5044647
S3158080471091B00F4615F05CF90546204615F060F994
S31580804720182821D11249201DFFF7C0FE616802AB8F
S3158080473006460246284615F016F968B16368322126
S315808047400C4A03A80093334648F07FFE02AA284687
S3158080475003A915F02EF928B9029815F005F808B93D
S31580804760029B3B6011B0F0BD6FF01500FAE700BF89
S3158080477008548580115485802DE9F04D054696B084
S3158080478003910021029209AA48F0C0FF099E761BF8
S31580804790074618D03146284615F063FC0446421CED
S315808047A014D140483246294647F0ECFD00286DD02A
S315808047B03D483246294647F0E5FD00286AD03B4889
S315808047C0294648F075FE6FF0150411E0752864D08F
S315808047D000280DDB4FF00008204605A915F0D7FB91
S315808047E050B133482A4639466FF0010448F060FE5E
S315808047F0204616B0BDE8F08D059B9E68059B2C3EB5
S3158080480006F12C0208339A42EBD07B1C04D0B36C21
S31580804810BB4201D0F66AF1E7182106AA304615F028
S3158080482089F850B3394607AA204614F0C3F8002881
S31580804830F0D1DDF81CA0504615F0CAF88346504664
S3158080484015F0CEF81628E5D11A490AF10400FFF74B
S315808048502DFE194A01923221DAF804200092174AF5
S31580804860034609A848F0F1FD08AA584609A915F01B
S31580804870A0F80028CED1089B0693069B039A1360E6
S31580804880029B0BB1C3F800800024B1E74FF0020889
S315808048902724A1E74FF00108FAE74FF000083E246D
S315808048A09AE700BFB4538580B8538580BD53858091
S315808048B0DB53858015548580095485804454858052
S315808048C0F7B50368164604460D46CA680146DF6B0F
S315808048D0304600F03CFA3B6893B9204601A9FFF741
S315808048E015FF10F15F0F08D028B9019933462A4603
S315808048F02046FFF741FE03B0F0BD6FF06B00FAE70C
S315808049003246294620469847F5E710B514F03EFD95
S3158080491004462068844200D110BD00F03BFAF8E757
S3158080492008B5FFF7F2FF002008BD00002DE9FF4D96
S31580804930244B8A46244A04469B1A1B11009390B1C5
S31580804940002103AA48F0E2FE039BA3EB04081E4DD8
S315808049500026DFF87CB03746009BBB4206DC3046BB
S3158080496004B0BDE8F08D4FF0FF38F0E7686815F049
S3158080497069FB54B9524639462846FFF769FD0028B7
S3158080498018BF064601371035E6E7019047F017FDD8
S3158080499001990246404538BF4246204647F0F2FCA0
S315808049A00028E7D06B68272BECD10848214647F052
S315808049B0DEFC0028DED02146584647F0D8FC002809
S315808049C0D8D0DFE7F4C28680D4C28680B85385800B
S315808049D0B453858070B50D46002104461646FFF790
S315808049E0A5FF30B9324629462046BDE87040FFF79C
S315808049F0C3BE70BD73B5002304460D46164601932B
S31580804A00019B7BB9A36E626E0133A36652F8230045
S31580804A1018B96FF0120002B070BD324601A9FFF757
S31580804A20D9FFEDE72B600020F5E700002DE9F845FA
S31580804A300E4C00260E4D80468A4637462D1B2D11FC
S31580804A40BD4202DC3046BDE8F8852368434509D1FE
S31580804A50524639462046FFF7FBFC18B110F1020F0B
S31580804A6018BF064601371034EAE700BFD4C2868075
S31580804A70F4C2868037B50B68044601930D460023C1
S31580804A800B60019BE3B9182001A915F028FB0198DA
S31580804A9028B114F07BFCA36F82689A4210D101986A
S31580804AA090B9A06F01300828A06718D021680B07BD
S31580804AB00FD5C1F34001FFF7B9FF50B103B030BDC8
S31580804AC001A815F01DFBE2E714F04EFE08B1002325
S31580804AD00193019B002BD4D02B600020EEE76FF0F2
S31580804AE01200EBE72DE9FF411E460023D0F80080B7
S31580804AF005461A2001A90293174615F0DDFC044667
S31580804B0030B11F4848F0D4FC204604B0BDE8F0811F
S31580804B102B681B070CD401980DF1030100F014FB60
S31580804B209DF80330686604465BB96FF00B04EBE74B
S31580804B300120C8F34001FFF779FF04460028EAD0B8
S31580804B40E2E7A0B14FF0FF3303AA284602A9AB66FD
S31580804B50FFF750FF029880B114F006FE04460028C5
S31580804B60D2D10EB1039B3360029B3B60CCE7284653
S31580804B7002A9FFF77FFF0394ECE76FF00104C3E798
S31580804B802C54858038B590F8803004460D4663B1C4
S31580804B90C06814F0FBFB0023E06829466360C4F894
S31580804BA08430BDE8384000F0B2B90A460146BDE897
S31580804BB038404068FFF784BE38B588220D4600218C
S31580804BC00446FCF74DFC4FF0FF3325606367102366
S31580804BD0236238BDC06F0FF021BE2DE9F3410446B4
S31580804BE00E460025A26912F1130F0ED0E06F12F1E6
S31580804BF06C0F0DD1012125676C320368E3602CD15F
S31580804C002368A5602561DA032ED56FF0120019E03E
S31580804C10236F94F88010E76E0133BB42236714DAE2
S31580804C2050F82330E36031462046FFF7ABFF48B12A
S31580804C30A06110F16C0FD5D010F1260FD2D02368E9
S31580804C405B07CFD502B0BDE8F0810029D2D0636FF3
S31580804C500021E36684F88050CDE7A368226901331A
S31580804C609342A360CCDCDEE76368009369B96A46C9
S31580804C7001AB2046FFF736FFA8B1E06814F086FBCB
S31580804C8000236360C4F88430BFE7676E2FB16946BE
S31580804C9001AA2046FFF7AEFEEEE769462046FFF77B
S31580804CA0E9FE0197E8E7009814F05EFD0028ACD114
S31580804CB0DDE90087E06814F069FBC4F80480C4F8F5
S31580804CC08470B0E7F7B5089F0E4614461D4600B936
S31580804CD009B145F400352946204685F40035FFF72D
S31580804CE06BFF2046C5F3404100F026F978B9226FE4
S31580804CF0E36F53F82230E36094F8803093B9009361
S31580804D006A46314601AB2046FFF7ECFE10B16FF064
S31580804D1012001AE0DDE90065E06814F037FB666012
S31580804D20C4F8845039462046FFF72CFF68B110F1CD
S31580804D306C0F05D010F1260F02D023685B0704D450
S31580804D40A06139462046FFF748FF03B0F0BD70B5B5
S31580804D500E461546002158220446FCF781FB002327
S31580804D6026612562A36270BD10B50446406A0FF045
S31580804D7055FDE06A0FF052FD206B0FF04FFDE06B22
S31580804D800FF04CFDA06C0FF049FDE06CBDE8104043
S31580804D900FF044BD10B50369044633B1D0E90023D2
S31580804DA053601A60002303604360E3682046A268EC
S31580804DB053601A600023A360E360FFF7D5FF204627
S31580804DC0BDE810400FF02ABD08B5836A0146052BE1
S31580804DD007D1006A00F087F8002808BF6FF00D00C1
S31580804DE008BD6FF04600FBE710B50B6A0C46074896
S31580804DF0496A5A6848F05CFB2046FFF7E5FF04461F
S31580804E000146034848F054FB204610BD4C548580AB
S31580804E106E54858008B5406814F0DAFD14F0E0FDA4
S31580804E20272806D020F040001A28034818BF002083
S31580804E3008BD0148FCE700BFF4FDFFFF08B5406868
S31580804E4014F0C6FD14F0CCFD2728024808BF002048
S31580804E5008BD00BFF4FDFFFF2DE9F045044687B00D
S31580804E608846481C92460FF08DFD0546F8B1464629
S31580804E7004AB002701460293204600220023CDE919
S31580804E80006731F079F9044630B128460FF0C6FCC8
S31580804E90204607B0BDE8F085DDE904239F4208BF40
S31580804EA0904507D105F80800CAF80050F0E76FF002
S31580804EB00B04EDE76FF01504EAE70346084611B167
S31580804EC0196831F0E7B870470368DB6B5B6803B1BC
S31580804ED01847184670470368DB6B9B6803B1184791
S31580804EE06FF0250070470368DB6B5B6903B11847F9
S31580804EF06FF02500704710B40468E46B246914B1A0
S31580804F00A44610BC604710BC6FF02500704770B512
S31580804F10036804460D46DE6BB36853B102460021B2
S31580804F202846FFF714FFB36829462046BDE87040BF
S31580804F3018476FF0250070BD2DE9FF4D009104461E
S31580804F4002A800F029F9074648B9029BDE6956B95E
S31580804F50192015F03FFB064628B96FF001073846C1
S31580804F6004B0BDE8F08D042130460FF01DFF8046E9
S31580804F7000283ED006F10A0B4FEA4B034FF0000B18
S31580804F8001935D464FF0000AB54202DA019B9A454D
S31580804F9016DB009B9B450FDB002DDED043B1636F14
S31580804FA05A1C05D09D421EBF2367012384F880301A
S31580804FB0C4F87C80E566D2E765674FF0010BE1E750
S31580804FC0514603AA192015F0F2F978B9039814F09E
S31580804FD0DDF9426802F00102BBF1000F01D182F057
S31580804FE001021AB1039A48F8252001350AF1010A8F
S31580804FF0CAE76FF00B07B2E770B50446B6B00E46C7
S3158080500004A80093C821134B002A18BF1346124A5E
S3158080501048F01BFA206B0FF001FC04A847F01AFABF
S31580805020206390B102A904A831F094F831460546F0
S3158080503004F11800FFF741FF50B91DB9029B236424
S315808050400423A362284636B070BD6FF00B05F9E75E
S315808050500546F7E7FBF0858059E0858013B5036CBC
S3158080506004468B420BD8006B01AA1946FFF7F4FEE3
S3158080507018B90523A362019BE36302B010BD6FF06C
S315808050800600FAE72DE9F04DD1F814B088B08A464B
S3158080509014461D46DDF84080BBF1000F03D058468C
S315808050A014F074F9834659460AF1180A5046FFF778
S315808050B004FF00BB204606A931F04CF8D8B9DDE95B
S315808050C006230027D8F80060964277EB030315DB2A
S315808050D059465046FFF7F1FE68B9002204AB29464F
S315808050E0204602930023CDE9002331F045F810B99C
S315808050F0049BC8F8003008B0BDE8F08D6FF01B00C7
S31580805100F9E708B514F09EFA002008BD08B514F0BA
S3158080511099FA00F1140343618361002008BD38B594
S3158080512014F090FA0446006804F114050FF076FBBB
S3158080513060680FF073FB6069A84201D1002038BD9A
S315808051400838FFF727FEF6E770B50E4614F07AFA30
S3158080515004460A4830F054F901233370054658B125
S3158080516003784BB1A06848F031FB284648F0FCFABA
S31580805170A06000B9307070BD6068FCE75B57858041
S3158080518008B514F05FFA034B0068002808BF1846FC
S3158080519008BD00BF7810858037B5054601A91A20DD
S315808051A015F08AF9044618B9019814F04BFA2860EC
S315808051B0204603B030BD37B501A8FFF7EDFF28B98B
S315808051C0019C04F114056069A84201D103B030BD09
S315808051D00838FFF7DFFDF6E72DE9F045D9F804308A
S315808051E085B0DB0703D4002005B0BDE8F0851A20A2
S315808051F003A914F074FF039BBBB1192002AE31461C
S3158080520014F06DFF029D002DEDD1184C184B194F6F
S31580805210DFF86C801B1B9B105F43AF42E3DD6368C6
S31580805220192B0CD001354434F7E7D9F8540003ABF9
S31580805230114A124914F0F2FC0028DED0D4E7D4F863
S3158080524000A009225146404647F09CF808B90AF1E9
S31580805250090A4FF0FF335246039821460093002374
S31580805260019614F0C2F90028DCD0BDE780CA86801A
S31580805270D8D88680F1F0F0F03A8185804281858029
S315808052804E8185800020704770B50C4692B0054669
S315808052901C2200210BA8FCF7E3F8E36A0193012323
S315808052A00A4A0BA9009305A8E66B02ABCDE90254A6
S315808052B0FEF7AEFC024620B9314605A8FEF7E0FC33
S315808052C008B16FF0150012B070BD00BFD1528080DA
S315808052D073B506460D461046002110221C46B668D8
S315808052E048F04EF900944FF0804222602A46034669
S315808052F0D6E90001FFF7FFFD02B070BD08B514F056
S3158080530045F8024B0360002008BD00BF4F1A868097
S315808053102DE9F0411A20BAB00C4601A915F0CCF8D7
S31580805320E8B963690BB1A369F3B10198FFF728FFE8
S31580805330656906461DB1284614F028F80546DFF8CB
S31580805340A080374676B13A68434629462046FFF79D
S3158080535053FE60B11EB157F8043F002BF2D13AB0AC
S31580805360BDE8F0813246EFE76FF00100F7E7012272
S315808053704FF480312046FFF771FE0028EFD1226CF2
S3158080538004A8E16B46F0CEFB216C012202AB124D64
S3158080539004A846F05DFB114E202308AFC72239460C
S315808053A004A846F089FB0028D9D0294603A803970C
S315808053B047F072F8039B0146002BEDD0304646F0CD
S315808053C0D6FF0028E8D1039847F044F8A0640028E7
S315808053D0E2D16FF00B00C2E7F6EF85809E11868062
S315808053E0278085800846FFF715BD000030B5CD6BD8
S315808053F091B0BDB1CB6C2C468BB1486D0E4A23469D
S315808054000090322103A848F020F8002103A810F0EC
S3158080541065F9002818BF6FF0150011B030BDD9F836
S315808054206C00EBE70548294630F012F82946044699
S31580805430034830F00DF8E1E7DF7F85801CDF8580CB
S315808054401EE0858008B513F0A1FF024B0360002023
S3158080545008BD00BFB662868010B508460C46FFF749
S31580805460D9FC30B9D4F8840010F0020000D004480A
S3158080547010BD2046FFF7E2FC0028F3D0F7E700BF97
S31580805480F4FDFFFF2DE9F0458B69FBB082460C4623
S31580805490002B00F0A68057493AA846F031FF3AA8FB
S315808054A046F08DFF3AAB1D18184646F088FFC0F54A
S315808054B080700F2840F398804F49284646F020FF19
S315808054C04E49284646F030FF606908B113F05EFF8A
S315808054D001463AAB00222046FFF78EFD054600281E
S315808054E059D14FF480324FF00071276C2046FFF7F8
S315808054F0B5FD054600284CD120690DF1200814F0B1
